{
  "contractName": "Helloworld",
  "abi": [
    {
      "inputs": [
        {
          "internalType": "string",
          "name": "_message",
          "type": "string"
        }
      ],
      "stateMutability": "nonpayable",
      "type": "constructor"
    },
    {
      "inputs": [],
      "name": "message",
      "outputs": [
        {
          "internalType": "string",
          "name": "",
          "type": "string"
        }
      ],
      "stateMutability": "view",
      "type": "function",
      "constant": true
    },
    {
      "inputs": [],
      "name": "owner",
      "outputs": [
        {
          "internalType": "address",
          "name": "",
          "type": "address"
        }
      ],
      "stateMutability": "view",
      "type": "function",
      "constant": true
    },
    {
      "inputs": [],
      "name": "hello",
      "outputs": [
        {
          "internalType": "string",
          "name": "",
          "type": "string"
        }
      ],
      "stateMutability": "view",
      "type": "function",
      "constant": true
    },
    {
      "inputs": [
        {
          "internalType": "string",
          "name": "_message",
          "type": "string"
        }
      ],
      "name": "setMessage",
      "outputs": [],
      "stateMutability": "payable",
      "type": "function",
      "payable": true
    }
  ],
  "bytecode": "0x60806040523480156200001157600080fd5b5060405162000993380380620009938339818101604052810190620000379190620001ba565b80600090805190602001906200004f92919062000098565b5033600160006101000a81548173ffffffffffffffffffffffffffffffffffffffff021916908373ffffffffffffffffffffffffffffffffffffffff160217905550506200036f565b828054620000a69062000294565b90600052602060002090601f016020900481019282620000ca576000855562000116565b82601f10620000e557805160ff191683800117855562000116565b8280016001018555821562000116579182015b8281111562000115578251825591602001919060010190620000f8565b5b50905062000125919062000129565b5090565b5b80821115620001445760008160009055506001016200012a565b5090565b60006200015f620001598462000228565b620001ff565b9050828152602081018484840111156200017857600080fd5b620001858482856200025e565b509392505050565b600082601f8301126200019f57600080fd5b8151620001b184826020860162000148565b91505092915050565b600060208284031215620001cd57600080fd5b600082015167ffffffffffffffff811115620001e857600080fd5b620001f6848285016200018d565b91505092915050565b60006200020b6200021e565b9050620002198282620002ca565b919050565b6000604051905090565b600067ffffffffffffffff8211156200024657620002456200032f565b5b62000251826200035e565b9050602081019050919050565b60005b838110156200027e57808201518184015260208101905062000261565b838111156200028e576000848401525b50505050565b60006002820490506001821680620002ad57607f821691505b60208210811415620002c457620002c362000300565b5b50919050565b620002d5826200035e565b810181811067ffffffffffffffff82111715620002f757620002f66200032f565b5b80604052505050565b7f4e487b7100000000000000000000000000000000000000000000000000000000600052602260045260246000fd5b7f4e487b7100000000000000000000000000000000000000000000000000000000600052604160045260246000fd5b6000601f19601f8301169050919050565b610614806200037f6000396000f3fe60806040526004361061003f5760003560e01c806319ff1d2114610044578063368b87721461006f5780638da5cb5b1461008b578063e21f37ce146100b6575b600080fd5b34801561005057600080fd5b506100596100e1565b6040516100669190610404565b60405180910390f35b61008960048036038101906100849190610360565b610173565b005b34801561009757600080fd5b506100a06101a1565b6040516100ad91906103e9565b60405180910390f35b3480156100c257600080fd5b506100cb6101c7565b6040516100d89190610404565b60405180910390f35b6060600080546100f09061050c565b80601f016020809104026020016040519081016040528092919081815260200182805461011c9061050c565b80156101695780601f1061013e57610100808354040283529160200191610169565b820191906000526020600020905b81548152906001019060200180831161014c57829003601f168201915b5050505050905090565b670de0b6b3a7640000341161018757600080fd5b806000908051906020019061019d929190610255565b5050565b600160009054906101000a900473ffffffffffffffffffffffffffffffffffffffff1681565b600080546101d49061050c565b80601f01602080910402602001604051908101604052809291908181526020018280546102009061050c565b801561024d5780601f106102225761010080835404028352916020019161024d565b820191906000526020600020905b81548152906001019060200180831161023057829003601f168201915b505050505081565b8280546102619061050c565b90600052602060002090601f01602090048101928261028357600085556102ca565b82601f1061029c57805160ff19168380011785556102ca565b828001600101855582156102ca579182015b828111156102c95782518255916020019190600101906102ae565b5b5090506102d791906102db565b5090565b5b808211156102f45760008160009055506001016102dc565b5090565b600061030b6103068461044b565b610426565b90508281526020810184848401111561032357600080fd5b61032e8482856104ca565b509392505050565b600082601f83011261034757600080fd5b81356103578482602086016102f8565b91505092915050565b60006020828403121561037257600080fd5b600082013567ffffffffffffffff81111561038c57600080fd5b61039884828501610336565b91505092915050565b6103aa81610498565b82525050565b60006103bb8261047c565b6103c58185610487565b93506103d58185602086016104d9565b6103de816105cd565b840191505092915050565b60006020820190506103fe60008301846103a1565b92915050565b6000602082019050818103600083015261041e81846103b0565b905092915050565b6000610430610441565b905061043c828261053e565b919050565b6000604051905090565b600067ffffffffffffffff8211156104665761046561059e565b5b61046f826105cd565b9050602081019050919050565b600081519050919050565b600082825260208201905092915050565b60006104a3826104aa565b9050919050565b600073ffffffffffffffffffffffffffffffffffffffff82169050919050565b82818337600083830152505050565b60005b838110156104f75780820151818401526020810190506104dc565b83811115610506576000848401525b50505050565b6000600282049050600182168061052457607f821691505b602082108114156105385761053761056f565b5b50919050565b610547826105cd565b810181811067ffffffffffffffff821117156105665761056561059e565b5b80604052505050565b7f4e487b7100000000000000000000000000000000000000000000000000000000600052602260045260246000fd5b7f4e487b7100000000000000000000000000000000000000000000000000000000600052604160045260246000fd5b6000601f19601f830116905091905056fea264697066735822122051ad42cc9ca77bff029a0312bcddf4186557ed058048a1a6591be3fe4bd5887c64736f6c63430008040033",
  "immutableReferences": {},
  "source": "pragma solidity 0.8.4;\n\ncontract Helloworld {\n    string public message;\n    address public  owner;\n\n    constructor(string memory _message){\n        message=_message;\n        owner=msg.sender;\n    }\n    function hello() public view returns (string memory){\n        return message;\n    }\n    function setMessage(string memory _message) public payable{\n        require(msg.value>1 ether);\n        message=_message;\n    }\n}\n",
  "sourcePath": "/Users/matchajanardhanarao/Desktop/truffle_project/contracts/Helloworld.sol",
  "compiler": {
    "name": "solc",
    "version": "0.8.4+commit.c7e474f2.Emscripten.clang"
  },
  "schemaVersion": "3.4.10",
  "updatedAt": "2022-10-24T02:34:55.989Z",
  "networkType": "ethereum",
  "devdoc": {
    "kind": "dev",
    "methods": {},
    "version": 1
  },
  "userdoc": {
    "kind": "user",
    "methods": {},
    "version": 1
  }
}